{
  "contractName": "Landlist",
  "abi": [
    {
      "constant": true,
      "inputs": [
        {
          "name": "",
          "type": "uint256"
        }
      ],
      "name": "lands",
      "outputs": [
        {
          "name": "owner",
          "type": "address"
        },
        {
          "name": "landname",
          "type": "string"
        },
        {
          "name": "power",
          "type": "uint256"
        }
      ],
      "payable": false,
      "stateMutability": "view",
      "type": "function"
    },
    {
      "constant": false,
      "inputs": [
        {
          "name": "_index",
          "type": "uint256"
        },
        {
          "name": "_landname",
          "type": "string"
        },
        {
          "name": "_power",
          "type": "uint256"
        }
      ],
      "name": "setLand",
      "outputs": [],
      "payable": false,
      "stateMutability": "nonpayable",
      "type": "function"
    },
    {
      "constant": true,
      "inputs": [
        {
          "name": "_index",
          "type": "uint256"
        }
      ],
      "name": "getLanddata",
      "outputs": [
        {
          "name": "",
          "type": "address"
        },
        {
          "name": "",
          "type": "string"
        },
        {
          "name": "",
          "type": "uint256"
        }
      ],
      "payable": false,
      "stateMutability": "view",
      "type": "function"
    },
    {
      "constant": false,
      "inputs": [
        {
          "name": "_index",
          "type": "uint256"
        },
        {
          "name": "_landname",
          "type": "string"
        },
        {
          "name": "_power",
          "type": "uint256"
        }
      ],
      "name": "Battleland",
      "outputs": [
        {
          "name": "",
          "type": "uint256"
        }
      ],
      "payable": false,
      "stateMutability": "nonpayable",
      "type": "function"
    }
  ],
  "bytecode": "0x608060405234801561001057600080fd5b506107b9806100206000396000f3fe608060405260043610610062576000357c0100000000000000000000000000000000000000000000000000000000900463ffffffff1680636ae9ee1d14610067578063ae07392f14610155578063e261f1e514610231578063eb7418c91461031f575b600080fd5b34801561007357600080fd5b506100a06004803603602081101561008a57600080fd5b810190808035906020019092919050505061040f565b604051808473ffffffffffffffffffffffffffffffffffffffff1673ffffffffffffffffffffffffffffffffffffffff16815260200180602001838152602001828103825284818151815260200191508051906020019080838360005b838110156101185780820151818401526020810190506100fd565b50505050905090810190601f1680156101455780820380516001836020036101000a031916815260200191505b5094505050505060405180910390f35b34801561016157600080fd5b5061022f6004803603606081101561017857600080fd5b81019080803590602001909291908035906020019064010000000081111561019f57600080fd5b8201836020820111156101b157600080fd5b803590602001918460018302840111640100000000831117156101d357600080fd5b91908080601f016020809104026020016040519081016040528093929190818152602001838380828437600081840152601f19601f82011690508083019250505050505050919291929080359060200190929190505050610521565b005b34801561023d57600080fd5b5061026a6004803603602081101561025457600080fd5b81019080803590602001909291905050506105c1565b604051808473ffffffffffffffffffffffffffffffffffffffff1673ffffffffffffffffffffffffffffffffffffffff16815260200180602001838152602001828103825284818151815260200191508051906020019080838360005b838110156102e25780820151818401526020810190506102c7565b50505050905090810190601f16801561030f5780820380516001836020036101000a031916815260200191505b5094505050505060405180910390f35b34801561032b57600080fd5b506103f96004803603606081101561034257600080fd5b81019080803590602001909291908035906020019064010000000081111561036957600080fd5b82018360208201111561037b57600080fd5b8035906020019184600183028401116401000000008311171561039d57600080fd5b91908080601f016020809104026020016040519081016040528093929190818152602001838380828437600081840152601f19601f820116905080830192505050505050509192919290803590602001909291905050506106a8565b6040518082815260200191505060405180910390f35b6000606060008084600a8110151561042357fe5b6003020160000160009054906101000a900473ffffffffffffffffffffffffffffffffffffffff16600085600a8110151561045a57fe5b60030201600101600086600a8110151561047057fe5b6003020160020154818054600181600116156101000203166002900480601f01602080910402602001604051908101604052809291908181526020018280546001816001161561010002031660029004801561050d5780601f106104e25761010080835404028352916020019161050d565b820191906000526020600020905b8154815290600101906020018083116104f057829003601f168201915b505050505091509250925092509193909250565b33600084600a8110151561053157fe5b6003020160000160006101000a81548173ffffffffffffffffffffffffffffffffffffffff021916908373ffffffffffffffffffffffffffffffffffffffff16021790555081600084600a8110151561058657fe5b6003020160010190805190602001906105a09291906106e8565b5080600084600a811015156105b157fe5b6003020160020181905550505050565b600081600a811015156105d057fe5b600302016000915090508060000160009054906101000a900473ffffffffffffffffffffffffffffffffffffffff1690806001018054600181600116156101000203166002900480601f0160208091040260200160405190810160405280929190818152602001828054600181600116156101000203166002900480156106985780601f1061066d57610100808354040283529160200191610698565b820191906000526020600020905b81548152906001019060200180831161067b57829003601f168201915b5050505050908060020154905083565b600081600085600a811015156106ba57fe5b600302016002015410156106dc576106d3848484610521565b600090506106e1565b600190505b9392505050565b828054600181600116156101000203166002900490600052602060002090601f016020900481019282601f1061072957805160ff1916838001178555610757565b82800160010185558215610757579182015b8281111561075657825182559160200191906001019061073b565b5b5090506107649190610768565b5090565b61078a91905b8082111561078657600081600090555060010161076e565b5090565b9056fea165627a7a723058202c5c34ab6e1b700e09608ba91417475ce6b2a3da102e7e81c1a47557c14992810029",
  "source": "pragma solidity ^0.5.0;\ncontract Landlist{\n\n    struct Land{\n        address owner;\n        string landname;\n        uint power;\n    }\n    Land[10] public lands;\n\n    function setLand(uint _index, string memory _landname, uint _power) public{\n        // require(_index < 10);\n        lands[_index].owner = msg.sender;\n        lands[_index].landname = _landname;\n        lands[_index].power = _power;\n    }\n\n    function getLanddata(uint _index) public view returns(address, string memory,uint){\n        return(lands[_index].owner, lands[_index].landname,lands[_index].power);\n    }\n\n    function Battleland(uint _index, string memory _landname, uint _power) public returns(uint){\n        if(lands[_index].power < _power){\n            setLand(_index,_landname,_power);\n            return 0;\n        }\n        else{\n            return 1;\n        }\n    }\n}\n",
  "sourcePath": "/Users/ramo/mygameDapps/contracts/Landlist.sol",
  "compiler": {
    "name": "solc",
    "version": "0.5.0+commit.1d4f565a.Emscripten.clang"
  },
  "schemaVersion": "3.0.9",
  "updatedAt": "2019-05-11T18:13:47.110Z",
  "devdoc": {
    "methods": {}
  },
  "userdoc": {
    "methods": {}
  }
}