{
  "contractName": "Ownbuki",
  "abi": [
    {
      "constant": true,
      "inputs": [
        {
          "name": "",
          "type": "uint256"
        }
      ],
      "name": "bukies",
      "outputs": [
        {
          "name": "bukiname",
          "type": "string"
        },
        {
          "name": "owner",
          "type": "address"
        }
      ],
      "payable": false,
      "stateMutability": "view",
      "type": "function"
    },
    {
      "constant": false,
      "inputs": [
        {
          "name": "_bukiname",
          "type": "string"
        }
      ],
      "name": "makebuki",
      "outputs": [
        {
          "name": "",
          "type": "uint256"
        }
      ],
      "payable": false,
      "stateMutability": "nonpayable",
      "type": "function"
    },
    {
      "constant": true,
      "inputs": [],
      "name": "getItemsLength",
      "outputs": [
        {
          "name": "",
          "type": "uint256"
        }
      ],
      "payable": false,
      "stateMutability": "view",
      "type": "function"
    },
    {
      "constant": true,
      "inputs": [
        {
          "name": "_index",
          "type": "uint256"
        }
      ],
      "name": "getbukidata",
      "outputs": [
        {
          "name": "",
          "type": "string"
        },
        {
          "name": "",
          "type": "address"
        }
      ],
      "payable": false,
      "stateMutability": "view",
      "type": "function"
    }
  ],
  "bytecode": "0x608060405234801561001057600080fd5b50610719806100206000396000f3fe608060405260043610610062576000357c0100000000000000000000000000000000000000000000000000000000900463ffffffff1680630d88183814610067578063194f479514610143578063a02c87b31461016e578063ef1c306314610255575b600080fd5b34801561007357600080fd5b5061012d6004803603602081101561008a57600080fd5b81019080803590602001906401000000008111156100a757600080fd5b8201836020820111156100b957600080fd5b803590602001918460018302840111640100000000831117156100db57600080fd5b91908080601f016020809104026020016040519081016040528093929190818152602001838380828437600081840152601f19601f82011690508083019250505050505050919291929050505061033c565b6040518082815260200191505060405180910390f35b34801561014f57600080fd5b50610158610412565b6040518082815260200191505060405180910390f35b34801561017a57600080fd5b506101a76004803603602081101561019157600080fd5b8101908080359060200190929190505050610424565b60405180806020018373ffffffffffffffffffffffffffffffffffffffff1673ffffffffffffffffffffffffffffffffffffffff168152602001828103825284818151815260200191508051906020019080838360005b838110156102195780820151818401526020810190506101fe565b50505050905090810190601f1680156102465780820380516001836020036101000a031916815260200191505b50935050505060405180910390f35b34801561026157600080fd5b5061028e6004803603602081101561027857600080fd5b810190808035906020019092919050505061052d565b60405180806020018373ffffffffffffffffffffffffffffffffffffffff1673ffffffffffffffffffffffffffffffffffffffff168152602001828103825284818151815260200191508051906020019080838360005b838110156103005780820151818401526020810190506102e5565b50505050905090810190601f16801561032d5780820380516001836020036101000a031916815260200191505b50935050505060405180910390f35b6000610346610618565b60408051908101604052808481526020013373ffffffffffffffffffffffffffffffffffffffff16815250905060016000829080600181540180825580915050906001820390600052602060002090600202016000909192909190915060008201518160000190805190602001906103bf929190610648565b5060208201518160010160006101000a81548173ffffffffffffffffffffffffffffffffffffffff021916908373ffffffffffffffffffffffffffffffffffffffff160217905550505003915050919050565b60008060008054905090508091505090565b60606000808381548110151561043657fe5b906000526020600020906002020160000160008481548110151561045657fe5b906000526020600020906002020160010160009054906101000a900473ffffffffffffffffffffffffffffffffffffffff16818054600181600116156101000203166002900480601f01602080910402602001604051908101604052809291908181526020018280546001816001161561010002031660029004801561051d5780601f106104f25761010080835404028352916020019161051d565b820191906000526020600020905b81548152906001019060200180831161050057829003601f168201915b5050505050915091509150915091565b60008181548110151561053c57fe5b9060005260206000209060020201600091509050806000018054600181600116156101000203166002900480601f0160208091040260200160405190810160405280929190818152602001828054600181600116156101000203166002900480156105e85780601f106105bd576101008083540402835291602001916105e8565b820191906000526020600020905b8154815290600101906020018083116105cb57829003601f168201915b5050505050908060010160009054906101000a900473ffffffffffffffffffffffffffffffffffffffff16905082565b604080519081016040528060608152602001600073ffffffffffffffffffffffffffffffffffffffff1681525090565b828054600181600116156101000203166002900490600052602060002090601f016020900481019282601f1061068957805160ff19168380011785556106b7565b828001600101855582156106b7579182015b828111156106b657825182559160200191906001019061069b565b5b5090506106c491906106c8565b5090565b6106ea91905b808211156106e65760008160009055506001016106ce565b5090565b9056fea165627a7a72305820d1a98c5192702c948a378e2cc934f6b3cb23e51187879c8b64458cd21354e5710029",
  "source": "pragma solidity ^0.5.0;\ncontract Ownbuki{\n\n    struct Buki {\n        string bukiname;\n        address owner;\n    }\n    Buki[] public bukies;\n\n    function makebuki(string memory _bukiname) public returns (uint){\n        Buki memory newbuki = Buki({\n            bukiname : _bukiname,\n            owner : msg.sender\n        });\n        return bukies.push(newbuki) - 1;\n    }\n\n    function getItemsLength() public view returns (uint) {\n        uint kekka = bukies.length;\n        return kekka;\n    }\n\n    function getbukidata(uint _index) public view returns (string memory,address) {\n        return (bukies[_index].bukiname, bukies[_index].owner);\n    }\n\n}",
  "sourcePath": "/Users/ramo/mygameDapps/contracts/Ownbuki.sol",
  "compiler": {
    "name": "solc",
    "version": "0.5.0+commit.1d4f565a.Emscripten.clang"
  },
  "schemaVersion": "3.0.9",
  "updatedAt": "2019-05-11T15:43:31.100Z",
  "devdoc": {
    "methods": {}
  },
  "userdoc": {
    "methods": {}
  }
}