{
  "contractName": "Ownown",
  "abi": [
    {
      "constant": true,
      "inputs": [
        {
          "name": "",
          "type": "uint256"
        }
      ],
      "name": "objects",
      "outputs": [
        {
          "name": "objectname",
          "type": "string"
        },
        {
          "name": "owenername",
          "type": "string"
        },
        {
          "name": "owneraddress",
          "type": "address"
        }
      ],
      "payable": false,
      "stateMutability": "view",
      "type": "function"
    },
    {
      "constant": false,
      "inputs": [
        {
          "name": "_index",
          "type": "uint256"
        },
        {
          "name": "_objectname",
          "type": "string"
        },
        {
          "name": "_ownername",
          "type": "string"
        }
      ],
      "name": "setObject",
      "outputs": [],
      "payable": false,
      "stateMutability": "nonpayable",
      "type": "function"
    },
    {
      "constant": true,
      "inputs": [
        {
          "name": "_index",
          "type": "uint256"
        }
      ],
      "name": "getObject",
      "outputs": [
        {
          "name": "",
          "type": "string"
        },
        {
          "name": "",
          "type": "string"
        },
        {
          "name": "",
          "type": "address"
        }
      ],
      "payable": false,
      "stateMutability": "view",
      "type": "function"
    },
    {
      "constant": false,
      "inputs": [
        {
          "name": "_objectname",
          "type": "string"
        },
        {
          "name": "_ownername",
          "type": "string"
        }
      ],
      "name": "testsetObject",
      "outputs": [],
      "payable": false,
      "stateMutability": "nonpayable",
      "type": "function"
    },
    {
      "constant": true,
      "inputs": [],
      "name": "testgetObject",
      "outputs": [
        {
          "name": "",
          "type": "string"
        },
        {
          "name": "",
          "type": "string"
        },
        {
          "name": "",
          "type": "address"
        }
      ],
      "payable": false,
      "stateMutability": "view",
      "type": "function"
    },
    {
      "constant": true,
      "inputs": [],
      "name": "testgetdata",
      "outputs": [
        {
          "name": "",
          "type": "string"
        }
      ],
      "payable": false,
      "stateMutability": "pure",
      "type": "function"
    }
  ],
  "bytecode": "0x608060405234801561001057600080fd5b50610eed806100206000396000f3fe608060405260043610610078576000357c0100000000000000000000000000000000000000000000000000000000900463ffffffff16806328316b391461007d57806331384810146101d0578063ed1758501461032f578063f1c2d04114610482578063f41a5a95146105b1578063f5570bdb14610641575b600080fd5b34801561008957600080fd5b506100b6600480360360208110156100a057600080fd5b81019080803590602001909291905050506107aa565b6040518080602001806020018473ffffffffffffffffffffffffffffffffffffffff1673ffffffffffffffffffffffffffffffffffffffff168152602001838103835286818151815260200191508051906020019080838360005b8381101561012c578082015181840152602081019050610111565b50505050905090810190601f1680156101595780820380516001836020036101000a031916815260200191505b50838103825285818151815260200191508051906020019080838360005b83811015610192578082015181840152602081019050610177565b50505050905090810190601f1680156101bf5780820380516001836020036101000a031916815260200191505b509550505050505060405180910390f35b3480156101dc57600080fd5b5061032d600480360360408110156101f357600080fd5b810190808035906020019064010000000081111561021057600080fd5b82018360208201111561022257600080fd5b8035906020019184600183028401116401000000008311171561024457600080fd5b91908080601f016020809104026020016040519081016040528093929190818152602001838380828437600081840152601f19601f820116905080830192505050505050509192919290803590602001906401000000008111156102a757600080fd5b8201836020820111156102b957600080fd5b803590602001918460018302840111640100000000831117156102db57600080fd5b91908080601f016020809104026020016040519081016040528093929190818152602001838380828437600081840152601f19601f820116905080830192505050505050509192919290505050610956565b005b34801561033b57600080fd5b506103686004803603602081101561035257600080fd5b8101908080359060200190929190505050610a05565b6040518080602001806020018473ffffffffffffffffffffffffffffffffffffffff1673ffffffffffffffffffffffffffffffffffffffff168152602001838103835286818151815260200191508051906020019080838360005b838110156103de5780820151818401526020810190506103c3565b50505050905090810190601f16801561040b5780820380516001836020036101000a031916815260200191505b50838103825285818151815260200191508051906020019080838360005b83811015610444578082015181840152602081019050610429565b50505050905090810190601f1680156104715780820380516001836020036101000a031916815260200191505b509550505050505060405180910390f35b34801561048e57600080fd5b50610497610b84565b6040518080602001806020018473ffffffffffffffffffffffffffffffffffffffff1673ffffffffffffffffffffffffffffffffffffffff168152602001838103835286818151815260200191508051906020019080838360005b8381101561050d5780820151818401526020810190506104f2565b50505050905090810190601f16801561053a5780820380516001836020036101000a031916815260200191505b50838103825285818151815260200191508051906020019080838360005b83811015610573578082015181840152602081019050610558565b50505050905090810190601f1680156105a05780820380516001836020036101000a031916815260200191505b509550505050505060405180910390f35b3480156105bd57600080fd5b506105c6610d2f565b6040518080602001828103825283818151815260200191508051906020019080838360005b838110156106065780820151818401526020810190506105eb565b50505050905090810190601f1680156106335780820380516001836020036101000a031916815260200191505b509250505060405180910390f35b34801561064d57600080fd5b506107a86004803603606081101561066457600080fd5b81019080803590602001909291908035906020019064010000000081111561068b57600080fd5b82018360208201111561069d57600080fd5b803590602001918460018302840111640100000000831117156106bf57600080fd5b91908080601f016020809104026020016040519081016040528093929190818152602001838380828437600081840152601f19601f8201169050808301925050505050505091929192908035906020019064010000000081111561072257600080fd5b82018360208201111561073457600080fd5b8035906020019184600183028401116401000000008311171561075657600080fd5b91908080601f016020809104026020016040519081016040528093929190818152602001838380828437600081840152601f19601f820116905080830192505050505050509192919290505050610d6c565b005b606080600080846008811015156107bd57fe5b600302016000016000856008811015156107d357fe5b600302016001016000866008811015156107e957fe5b6003020160020160009054906101000a900473ffffffffffffffffffffffffffffffffffffffff16828054600181600116156101000203166002900480601f0160208091040260200160405190810160405280929190818152602001828054600181600116156101000203166002900480156108a65780601f1061087b576101008083540402835291602001916108a6565b820191906000526020600020905b81548152906001019060200180831161088957829003601f168201915b50505050509250818054600181600116156101000203166002900480601f0160208091040260200160405190810160405280929190818152602001828054600181600116156101000203166002900480156109425780601f1061091757610100808354040283529160200191610942565b820191906000526020600020905b81548152906001019060200180831161092557829003601f168201915b505050505091509250925092509193909250565b8160008060088110151561096657fe5b600302016000019080519060200190610980929190610e1c565b508060008060088110151561099157fe5b6003020160010190805190602001906109ab929190610e1c565b50336000806008811015156109bc57fe5b6003020160020160006101000a81548173ffffffffffffffffffffffffffffffffffffffff021916908373ffffffffffffffffffffffffffffffffffffffff1602179055505050565b600081600881101515610a1457fe5b60030201600091509050806000018054600181600116156101000203166002900480601f016020809104026020016040519081016040528092919081815260200182805460018160011615610100020316600290048015610ab65780601f10610a8b57610100808354040283529160200191610ab6565b820191906000526020600020905b815481529060010190602001808311610a9957829003601f168201915b505050505090806001018054600181600116156101000203166002900480601f016020809104026020016040519081016040528092919081815260200182805460018160011615610100020316600290048015610b545780601f10610b2957610100808354040283529160200191610b54565b820191906000526020600020905b815481529060010190602001808311610b3757829003601f168201915b5050505050908060020160009054906101000a900473ffffffffffffffffffffffffffffffffffffffff16905083565b6060806000806000600881101515610b9857fe5b60030201600001600080600881101515610bae57fe5b60030201600101600080600881101515610bc457fe5b6003020160020160009054906101000a900473ffffffffffffffffffffffffffffffffffffffff16828054600181600116156101000203166002900480601f016020809104026020016040519081016040528092919081815260200182805460018160011615610100020316600290048015610c815780601f10610c5657610100808354040283529160200191610c81565b820191906000526020600020905b815481529060010190602001808311610c6457829003601f168201915b50505050509250818054600181600116156101000203166002900480601f016020809104026020016040519081016040528092919081815260200182805460018160011615610100020316600290048015610d1d5780601f10610cf257610100808354040283529160200191610d1d565b820191906000526020600020905b815481529060010190602001808311610d0057829003601f168201915b50505050509150925092509250909192565b60606040805190810160405280601281526020017f7468697320697320737563636573732121210000000000000000000000000000815250905090565b81600084600881101515610d7c57fe5b600302016000019080519060200190610d96929190610e1c565b5080600084600881101515610da757fe5b600302016001019080519060200190610dc1929190610e1c565b5033600084600881101515610dd257fe5b6003020160020160006101000a81548173ffffffffffffffffffffffffffffffffffffffff021916908373ffffffffffffffffffffffffffffffffffffffff160217905550505050565b828054600181600116156101000203166002900490600052602060002090601f016020900481019282601f10610e5d57805160ff1916838001178555610e8b565b82800160010185558215610e8b579182015b82811115610e8a578251825591602001919060010190610e6f565b5b509050610e989190610e9c565b5090565b610ebe91905b80821115610eba576000816000905550600101610ea2565b5090565b9056fea165627a7a72305820c5ad6a990dd2cbca8859cffc1eef334041281912a56c85d9fc730ab5032d0abb0029",
  "source": "pragma solidity ^0.5.0;\ncontract Ownown{\n    struct Objectdata{\n        string objectname;\n        string owenername;\n        address owneraddress;\n    }\n    Objectdata[8] public objects;\n\n    function setObject(uint _index, string memory _objectname,string memory _ownername) public{\n        objects[_index].objectname = _objectname;\n        objects[_index].owenername = _ownername;\n        objects[_index].owneraddress = msg.sender;\n    }\n    function getObject(uint _index) public view returns(string memory, string memory, address){\n        return(objects[_index].objectname,objects[_index].owenername,objects[_index].owneraddress);\n    }\n    function testsetObject(string memory _objectname,string memory _ownername) public{\n        objects[0].objectname = _objectname;\n        objects[0].owenername = _ownername;\n        objects[0].owneraddress = msg.sender;\n    }\n    function testgetObject() public view returns(string memory, string memory, address){\n        return(objects[0].objectname,objects[0].owenername,objects[0].owneraddress);\n    }\n    function testgetdata() public pure returns(string memory){\n        return(\"this is success!!!\");\n    }\n}",
  "sourcePath": "/Users/ramo/mygameDapps/contracts/Ownown.sol",
  "compiler": {
    "name": "solc",
    "version": "0.5.0+commit.1d4f565a.Emscripten.clang"
  },
  "schemaVersion": "3.0.9",
  "updatedAt": "2019-05-15T02:26:04.887Z",
  "devdoc": {
    "methods": {}
  },
  "userdoc": {
    "methods": {}
  }
}