{
  "contractName": "Ownown",
  "abi": [
    {
      "constant": true,
      "inputs": [
        {
          "name": "",
          "type": "uint256"
        }
      ],
      "name": "objects",
      "outputs": [
        {
          "name": "objectname",
          "type": "string"
        },
        {
          "name": "owenername",
          "type": "string"
        },
        {
          "name": "owneradress",
          "type": "address"
        }
      ],
      "payable": false,
      "stateMutability": "view",
      "type": "function"
    },
    {
      "constant": false,
      "inputs": [
        {
          "name": "_index",
          "type": "uint256"
        },
        {
          "name": "_objectname",
          "type": "string"
        },
        {
          "name": "_ownername",
          "type": "string"
        }
      ],
      "name": "setOnject",
      "outputs": [],
      "payable": false,
      "stateMutability": "nonpayable",
      "type": "function"
    },
    {
      "constant": true,
      "inputs": [
        {
          "name": "_index",
          "type": "uint256"
        }
      ],
      "name": "getObject",
      "outputs": [
        {
          "name": "",
          "type": "string"
        },
        {
          "name": "",
          "type": "string"
        },
        {
          "name": "",
          "type": "address"
        }
      ],
      "payable": false,
      "stateMutability": "view",
      "type": "function"
    }
  ],
  "bytecode": "0x608060405234801561001057600080fd5b50610917806100206000396000f3fe608060405260043610610057576000357c0100000000000000000000000000000000000000000000000000000000900463ffffffff1680631453c46a1461005c57806328316b39146101c5578063ed17585014610318575b600080fd5b34801561006857600080fd5b506101c36004803603606081101561007f57600080fd5b8101908080359060200190929190803590602001906401000000008111156100a657600080fd5b8201836020820111156100b857600080fd5b803590602001918460018302840111640100000000831117156100da57600080fd5b91908080601f016020809104026020016040519081016040528093929190818152602001838380828437600081840152601f19601f8201169050808301925050505050505091929192908035906020019064010000000081111561013d57600080fd5b82018360208201111561014f57600080fd5b8035906020019184600183028401116401000000008311171561017157600080fd5b91908080601f016020809104026020016040519081016040528093929190818152602001838380828437600081840152601f19601f82011690508083019250505050505050919291929050505061046b565b005b3480156101d157600080fd5b506101fe600480360360208110156101e857600080fd5b810190808035906020019092919050505061051b565b6040518080602001806020018473ffffffffffffffffffffffffffffffffffffffff1673ffffffffffffffffffffffffffffffffffffffff168152602001838103835286818151815260200191508051906020019080838360005b83811015610274578082015181840152602081019050610259565b50505050905090810190601f1680156102a15780820380516001836020036101000a031916815260200191505b50838103825285818151815260200191508051906020019080838360005b838110156102da5780820151818401526020810190506102bf565b50505050905090810190601f1680156103075780820380516001836020036101000a031916815260200191505b509550505050505060405180910390f35b34801561032457600080fd5b506103516004803603602081101561033b57600080fd5b81019080803590602001909291905050506106c7565b6040518080602001806020018473ffffffffffffffffffffffffffffffffffffffff1673ffffffffffffffffffffffffffffffffffffffff168152602001838103835286818151815260200191508051906020019080838360005b838110156103c75780820151818401526020810190506103ac565b50505050905090810190601f1680156103f45780820380516001836020036101000a031916815260200191505b50838103825285818151815260200191508051906020019080838360005b8381101561042d578082015181840152602081019050610412565b50505050905090810190601f16801561045a5780820380516001836020036101000a031916815260200191505b509550505050505060405180910390f35b8160008460088110151561047b57fe5b600302016000019080519060200190610495929190610846565b50806000846008811015156104a657fe5b6003020160010190805190602001906104c0929190610846565b50336000846008811015156104d157fe5b6003020160020160006101000a81548173ffffffffffffffffffffffffffffffffffffffff021916908373ffffffffffffffffffffffffffffffffffffffff160217905550505050565b6060806000808460088110151561052e57fe5b6003020160000160008560088110151561054457fe5b6003020160010160008660088110151561055a57fe5b6003020160020160009054906101000a900473ffffffffffffffffffffffffffffffffffffffff16828054600181600116156101000203166002900480601f0160208091040260200160405190810160405280929190818152602001828054600181600116156101000203166002900480156106175780601f106105ec57610100808354040283529160200191610617565b820191906000526020600020905b8154815290600101906020018083116105fa57829003601f168201915b50505050509250818054600181600116156101000203166002900480601f0160208091040260200160405190810160405280929190818152602001828054600181600116156101000203166002900480156106b35780601f10610688576101008083540402835291602001916106b3565b820191906000526020600020905b81548152906001019060200180831161069657829003601f168201915b505050505091509250925092509193909250565b6000816008811015156106d657fe5b60030201600091509050806000018054600181600116156101000203166002900480601f0160208091040260200160405190810160405280929190818152602001828054600181600116156101000203166002900480156107785780601f1061074d57610100808354040283529160200191610778565b820191906000526020600020905b81548152906001019060200180831161075b57829003601f168201915b505050505090806001018054600181600116156101000203166002900480601f0160208091040260200160405190810160405280929190818152602001828054600181600116156101000203166002900480156108165780601f106107eb57610100808354040283529160200191610816565b820191906000526020600020905b8154815290600101906020018083116107f957829003601f168201915b5050505050908060020160009054906101000a900473ffffffffffffffffffffffffffffffffffffffff16905083565b828054600181600116156101000203166002900490600052602060002090601f016020900481019282601f1061088757805160ff19168380011785556108b5565b828001600101855582156108b5579182015b828111156108b4578251825591602001919060010190610899565b5b5090506108c291906108c6565b5090565b6108e891905b808211156108e45760008160009055506001016108cc565b5090565b9056fea165627a7a723058203306c33e172b645bca4ed9aff572b2ac53ab959c8e556682b8b373f59e44459b0029",
  "source": "pragma solidity ^0.5.0;\ncontract Ownown{\n    struct Objectdata{\n        string objectname;\n        string owenername;\n        address owneradress;\n    }\n    Objectdata[8] public objects;\n\n    function setOnject(uint _index, string memory _objectname,string memory _ownername) public{\n        objects[_index].objectname = _objectname;\n        objects[_index].owenername = _ownername;\n        objects[_index].owneradress = msg.sender;\n    }\n\n    function getObject(uint _index) public view returns(string memory, string memory, address){\n        return(objects[_index].objectname,objects[_index].owenername,objects[_index].owneradress);\n    }\n}",
  "sourcePath": "/Users/ramo/mygameDapps/contracts/Ownown.sol",
  "compiler": {
    "name": "solc",
    "version": "0.5.0+commit.1d4f565a.Emscripten.clang"
  },
  "schemaVersion": "3.0.9",
  "updatedAt": "2019-05-13T00:13:00.464Z",
  "devdoc": {
    "methods": {}
  },
  "userdoc": {
    "methods": {}
  }
}